:100000008EC200000C949B1CA7C20000A5C2000079
:10001000A3C20000A1C200009FC200009DC2000058
:100020009BC2000099C200000C9481210C944E22C6
:100030000C944D1B91C200008FC200008DC20000C5
:100040008BC2000089C2000087C2000085C2000088
:1000500083C200000C94C41B7FC200007DC200005C
:100060007BC2000079C2000077C2000075C20000A8
:1000700073C2000071C200006FC200006DC20000B8
:100080006BC2000069C2000067C2000065C20000C8
:1000900063C2000061C200005FC200005DC20000D8
:1000A0005BC2000059C2000057C2000014281A00A9
:1000B00008001500170004001600074409410A0053
:1000C0001D001B0006441900050000000000000090
:1000D00029222A2100000000000000530000130024
:1000E00012000C0018001C0033000F000E000D0061
:1000F0000B00340037463643104211000000000068
:10010000000028222C3800000000475200000000A8
:1001100001000100010001000100010001000100D7
:1001200001000100010001000100010001000000C8
:1001300001000100010001000000010001000100B8
:1001400001004B002B0252002B00A9004E004F0073
:1001500051005000A8002E002D0013001302AA0029
:10016000000000000000010001000000010001008B
:100170000100010000001E001F00200052002700A7
:100180002100220023005100000024002500260049
:10019000A452000000000000010001000000010066
:1001A000010001000100000000000000000000004C
:1001B000000000000000000000000000000000003F
:1001C000000000000000000000000100010000002D
:1001D0000100010001000100000000002F023002B8
:1001E00000003602370226022702000031003800E4
:1001F0002F0030000000000000000000010001009E
:1002000000000000000001000100000000000000EC
:1002100000000000000000000000000000000000DE
:10022000000000002C080000000000000000010099
:1002300001000000000000000100010000000000BB
:100240000000BE00BD000000000000000000000033
:10025000000000000000000000000000000000009E
:10026000010001000000000000000100010000008A
:1002700038021E023502350020022102230222022A
:100280002D0225021F02240231022E02000000006E
:10029000000001000100000000000000000000005C
:1002A0000100010001000100010001000100010046
:1002B0000100010001000100010001000100000037
:1002C0000000010001000100000001000100010028
:1002D0000100010001000100010001000100010016
:1002E0000100010001000100010001000100010006
:1002F00000000100010001000100000001000100F8
:1003000001000100141C1A1C081C151C171C041CDD
:10031000161C071C091C0A1C1D1C1B1C061C191C76
:10032000051C0000000000000100010000000000AA
:10033000000001000100131C121C0C1C181C1C1CCA
:100340000F1C00000E080D1C0B1C341C371C361C27
:10035000101C111C00000000000001000100000042
:10036000000000000000000014001A000800150042
:10037000170004001600070009000A001D001B00FA
:1003800006441941050000000000000001000100C2
:1003900000000000000001000100130012000C002A
:1003A00018001C0013000F000E000D000B0034009D
:1003B00037463643104211000000000000000100E3
:1003C000010000000000405200000000280344002B
:1003D00061006300740079006C0020004D00610032
:1003E0006E00750066006F0072006D002000340022
:1003F0007800350000000E037400730068006F0081
:100400007200740000000403090409023B000201A9
:1004100000A0FA09040000010301010009211101F3
:100420000001224C000705810308000109040100B6
:100430000103000000092111010001227B000705D2
:1004400082032000011201000200000008AC054FE9
:100450000201000102000105010902A10185020952
:1004600001A1000509190129081500250195087544
:100470000181020501093009311581257F95027539
:1004800008810609381581257F95017508810605C3
:100490000C0A38021581257F950175088106C0C0B8
:1004A00005010980A101850319012AB7001501265C
:1004B000B700950175108100C0050C0901A10185E7
:1004C0000419012AA002150126A0029501751081C8
:1004D00000C005010906A101050719E029E715007B
:1004E000250195087501810205FF09031500250105
:1004F0009501750881020507190029FF150026FFDF
:1005000000950675088100050819012905150025C3
:1005100001950575019102950175039101C01124A2
:100520001FBECFEFDAE0DEBFCDBF11E0A0E0B1E04B
:10053000EEEDF9E402C005900D92AE3AB107D9F79D
:1005400022E0AEEAB1E001C01D92A33CB207E1F7A0
:100550000E94D7130C94AE2453CD8830B8F46A307F
:10056000A8F4453098F450E095E0699F400D511D86
:100570001124FA0192E3899FE00DF11D1124EE0F81
:10058000FF1FE455FF4F85919491089581E090E01D
:100590000895E3CF089581E00895FDCF0895FBCF3E
:1005A0000895F9CF0895F7CF0895FDCF08950895E0
:1005B0000895FDCF089508950895A6E0B0E0E3EE14
:1005C000F2E00C94212449835A839E833091B50133
:1005D00089819A81311117C03E81332389F022230A
:1005E00079F077D5182F682F89819A8151D5698143
:1005F0007A81812F0E948B0E2696E3E00C943D2495
:1006000058D5182FF4CF65D569817A81F3CFFC01D5
:10061000262F408151816281738184819581CDCF64
:10062000CF93DF93EC0161E0F2DFBE01B6DF8823F8
:1006300049F061E0CE01EBDFBE01B1DF8170DF91F7
:10064000CF91089580E0FACF0F931F93CF93DF935C
:10065000EC0160E0DCDF8C01BE01AADFBE01C80155
:10066000A8DFDF91CF911F910F9108950F931F93F2
:10067000CF93DF93EC0161E0CADF8C01BE0191DF13
:10068000811106C080E0DF91CF911F910F910895F5
:10069000BE01C8018ADF8823A9F3BE01C8010E94F8
:1006A0001A19882379F3BE01C8010E9474158823A2
:1006B00049F3BE01C8010E944C15882319F3BE01FD
:1006C000C8010E94CB0F8823E9F2BE01C8010E9435
:1006D000DD0F8823B9F2BE01C8010E94F60FD3CF07
:1006E00021E030E0A90102C0440F551F8A95E2F7CE
:1006F000CA0107C4CF93C82F81E090E00C2E02C03E
:10070000880F991F0A94E2F70E94850C8C2FE8DF6E
:10071000CF91089581E00895FDCF0895FBCF08950E
:10072000CF93C82FA6D38C2FF7DF8C2FF7DF2FEFB7
:1007300084E39CE0215080409040E1F700C000003D
:10074000CF91089581E0ECDF0C94E81B80E0E8DFB6
:100750000C94F91B30DF0E94E21A17C018D02CDF6E
:100760000C94E61A81E008950895CF93DF93D82F73
:10077000F9DFC82F882311F08D2FF6DF8C2FDF9142
:10078000CF9108950895F1CF089580E0FCCF0E94A5
:100790006419F9CFCF930E946419C82F8091B001DA
:1007A0008C1771F0C093B0010E94B81B6093B10127
:1007B0007093B2018093B3019093B4018C2FE3DF67
:1007C000CF910895ADE0B0E0E8EEF3E00C94222480
:1007D000488759876A877B878C879D879111ACD71B
:1007E0001F8286E0FE013896DE01119601900D927F
:1007F0008A95E1F78D8181110CC029813A814B8165
:100800005C816D817E818F81E7D62D96E2E00C942C
:100810003E24CE01019604DF8111EFCFF6CFFC011B
:100820002481213019F48081918184C40895662344
:1008300021F00E94D1160C949C170E942317FBCF25
:10084000CF93C82F8823B9F08238B9F40E94791960
:1008500081FD11C089E30E94381AD6D72FEF87EEA9
:1008600093E0215080409040E1F700C0000089E310
:100870000E943E1AC9D7CF910895833899F40E94F7
:10088000791980FDF8CF83E50E94381ABDD72FEF84
:1008900081EE94E0215080409040E1F700C00000DC
:1008A00083E5E6CF843899F40E94791982FDE3CF7D
:1008B00087E40E94381AA8D72FEF81EE94E02150E8
:1008C00080409040E1F700C0000087E4D1CF8CEF7A
:1008D0008C0F813A90F48C2F0E947B148111CBCF26
:1008E0008C2F0E94FD19882321F08C2F0E943E1A24
:1008F0008BD78C2F0E94381ABDCF80E28C0F8830A6
:1009000040F4C77081E001C0880FCA95EAF7F7D6B6
:10091000B1CFEBE5EC0FE33040F4F0E0EB59FE4FE4
:10092000808190E00E949A19A6CFE8E5EC0FEB31A8
:1009300050F4F0E0EE0FFF1FE15DFE4F80819181EA
:100940000E94C11998CF83E38C0F833108F093CFB5
:1009500061E08C2F6CDF8FCF882309F44DC0823883
:1009600061F40E94791981FF47C089E30E94381A17
:100970004BD789E30E943E1A47C7833851F40E943F
:10098000791980FF39C083E50E94381A3DD783E585
:10099000F1CF843851F40E94791982FF2DC087E489
:1009A0000E94381A31D787E4E5CF9CEF980F913A2F
:1009B00008F390E2980F983048F4877091E001C0F6
:1009C000990F8A95EAF7892FA0D6D6CF9BE5980F85
:1009D000933020F490E080E00C949A1998E5980FF9
:1009E0009B3120F490E080E00C94C11993E3980FC0
:1009F000933110F460E01BCF08951F93CF93DF93E2
:100A0000182FEB011DDF209731F4812FA5DFDF9137
:100A1000CF911F9108958FE99FE00197F1F700C0F2
:100A200000002197F0CF70E060E0893311F460E5B9
:100A300070E0E3CF882311F062D6E6C608958823DC
:100A400011F063D6E1C60895B0E0A0E0EAE2F5E077
:100A50000C941B246C01D62FC72FFC011581068135
:100A600002950F7042D6E82E8823E9F0E12E11237B
:100A7000D1F08C2F807F803461F080E28D0F883040
:100A800000F18C2F807E803221F4D230D0F0002310
:100A9000C1F08091970282FF14C082E0D1D625D6A2
:100AA00091E0E82EE926BC2EB2949FE0B922FBE04B
:100AB000FB1508F465C0EB2DF0E0E055FB4D0C9400
:100AC0000C24E12CF0CF0C2F0F70C07F11F0029599
:100AD000007F112381F0002349F080E28D0F8830E0
:100AE00010F0D11105C0802F0AD68ED68D2F35C0BB
:100AF000802F15D6FACF8D2F2FDF002309F440C0A9
:100B000080E28D0F883010F0D11103C0802FFDD509
:100B100002C0802F0AD678D633C02C2F2F70F22E29
:100B2000C07FC03219F0F29480EFF822DD2349F043
:100B3000D13009F43CC0112309F443C00023C9F0AB
:100B4000D5CF8091970282FD10C0112341F0FF2084
:100B500019F08F2DD4D558D680E072DE11C080E018
:100B6000FBDEFF2069F08F2DD2CF1123B9F00111E8
:100B700003C08F2D5FDF04C0013011F48F2DF0D53D
:100B8000EB2DE850FF0B349708F021C10E94641947
:100B9000FADDCDB7DEB7E9E00C9437240111F0CFD0
:100BA0008F2D4DDF8F2DE7D58F2DCCD5E9CF11239C
:100BB00019F0063028F7DDCF053010F78F2D3FDF15
:100BC000DFCF0023D9F3D93349F43FEF87EE93E029
:100BD000315080409040E1F700C000008D2FBCDE16
:100BE000CFCF8C2F86958695837061F0813041F64A
:100BF0008D2F9C2F9370111102C080E090E00E9415
:100C0000C119BECF8D2F9C2F9370111102C080E0AF
:100C100090E00E949A19B4CF809100019091010157
:100C2000112319F00E947C1A76CF0E94801A73CF8C
:100C3000612F8D2FFCDDA4CF8C2F837081F51111D6
:100C40009FCF4D2F429546954770440F440F2D2F4F
:100C50002F7030E0042E02C0220F331F0A94E2F7F7
:100C600090E080E0D4FF09C08FE090E002C0880FE0
:100C7000991F4A95E2F780959095C695C695C370E1
:100C8000822B932BC23039F040F4C13011F042D1A5
:100C900077CF39D175CF45D173CF33D171CF869509
:100CA000112311F08C2F8170882309F469CF4D2F07
:100CB000429546954770440F440F2D2F2F7030E01A
:100CC000042E02C0220F331F0A94E2F790E080E066
:100CD000D4FF09C08FE090E002C0880F991F4A95A9
:100CE000E2F780959095C695C695C370822B932B9D
:100CF000C23039F040F4C13011F067D141CF5ED13C
:100D00003FCF6AD13DCF1AD13BCFCF70112321F015
:100D10008C2F28D18D2F2ECF8D2F91DE8C2F30D17F
:100D20002FCFD23F39F160F4D03FB9F0D13F81F0FD
:100D3000112309F43CC00111D9CE8C2F8F711EC034
:100D4000D33FF1F0D43FA1F78091970282FD20C0FC
:100D50008C2F8F71112319F311C0112339F0053035
:100D600008F00ECF8C2F8F711BD10ACF063008F000
:100D700007CFF8CF8C2F8F711111D1CFF3D000CFC7
:100D8000112321F08C2F8F71E3D0FACEDED0F8CE74
:100D9000112329F063E08C2F8F713BD5F1CE81E0D8
:100DA0004FD5023008F4ECCE82E04AD5E9CE0023DC
:100DB00059F0D93309F012CFEFEFF7EE23E0E1500D
:100DC000F0402040E1F708CF8C2F8F71A8CFEE20A4
:100DD00009F4DFCE86D480FDDCCEF60115827BD40B
:100DE000C1D0C60117D077D4CBD0D3CE0F931F93E9
:100DF000CF93DF93EC01688179818D81A4D18C013F
:100E0000F2D07ED0B801CE011FDEDF91CF911F91CD
:100E10000F910895CF93DF93EC018C81882381F0AB
:100E2000CE0124DC81110FC060D4882349F08D816C
:100E3000882331F08091970282FF02C082E000D5C2
:100E4000DF91CF910895CE01D1DFCE01FDDBF8CF48
:100E500090E080E00E949A1990E080E00E94C11921
:100E60006BD4D2D40E94B5170C949C170E94441ADC
:100E7000EFCF52D4FBCF92959F70963091F058F4FB
:100E8000925F9F70923058F4803F19F030F4883EA2
:100E900030F481E008959A5FF4CF843FD1F380E08D
:100EA0000895883EB0F3813FD1F7F3CFFC01248150
:100EB000222321F0808191813DD1DDCF80E0089512
:100EC000A6E0B0E0E6E6F7E00C9422242696E2E005
:100ED0000C943E24A7E0B0E0E0E7F7E00C94222475
:100EE0002796E2E00C943E240895FECF0895FDCFAE
:100EF0000895FADFFCDF9093D5018093D401089523
:100F00000895F7CF08952091D4013091D501822B17
:100F1000932BEFCF2091D4013091D50182239323DD
:100F2000E8CF2091D4013091D50182279327E1CFDA
:100F3000DBCF0895FDCF0895D7CF0895FDDFFADF09
:100F40009093D3018093D201089590E080E0F6CF92
:100F500021E030E0A90102C0440F551F8A95E2F755
:100F6000CA01ECCF21E030E002C0220F331F8A9586
:100F7000E2F78091D2019091D301822B932BDECFA7
:100F800021E030E002C0220F331F8A95E2F720955E
:100F900030958091D2019091D30182239323CECFBB
:100FA00021E030E002C0220F331F8A95E2F78091E2
:100FB000D2019091D30182279327C0CF2091D201F3
:100FC0003091D301822B932BB9CF2091D201309154
:100FD000D30182239323B2CF2091D2013091D30148
:100FE00082279327ABCF0895262F277091E001C069
:100FF000990F2A95EAF723E0769567952A95E1F708
:10100000660F771F660F771FFA01E60FF71F50E094
:1010100040E0682F70E08191DF0111979B01042E61
:1010200002C0369527950A94E2F72170219528276A
:10103000292328272C934F5F5F4F4430510559F7E0
:101040000895A82FA77023E0969587952A95E1F734
:10105000880F991F880F991FFB01E80FF91F50E0B7
:1010600040E080E0219130E00A2E02C036952795BD
:101070000A94E2F721703327042E01C0220F0A944C
:10108000EAF7822B4F5F5F4F4430510559F70895BF
:10109000262F9A3068F4853058F4682F70E085E088
:1010A000989F600D711D112446EB51E0822F9CCF5B
:1010B0000895292F9A3058F4853048F490E066EB73
:1010C00071E035E0239F800D911D1124BACF80E09F
:1010D0000895B0E0A0E0EFE6F8E00C941B247C015A
:1010E0000091D2011091D3018091D4019091D5014A
:1010F000082B192BCFE0D0E0CC24C394D12CBC2EEC
:10110000C6010C2E02C0880F991F0A94E2F78023B3
:101110009123892B49F4219790F7B12C8B2DCDB7D2
:10112000DEB7E9E00C943724B7018C2FFFD5019787
:1011300091F3F4CFCF93DF93EC01CBDFBE01F6D573
:10114000DF91CF9108951F93CF93DF93EB0190919F
:10115000B501992331F0CB01EDDFDF91CF911F91E4
:101160000895882351F0CB01B4DF182F682FCE01EA
:101170008FDFBE01812FDAD5F0CFCB019ADF182F98
:10118000F8CF1F93CF93DF93C091D60117E08091E2
:10119000D7018C1304C0DF91CF911F910895D0E047
:1011A0001C9FF0011D9FF00D1124E852FE4F20817D
:1011B0003181428153816481758186818BDE2196E4
:1011C000C770E5CF209110023091110240911202B8
:1011D00050911302609114027091150280911602D1
:1011E00079CECF93DF9380911602807F09F04BC0B8
:1011F00080911502882309F446C0E091D6015091F0
:10120000D701C0911102D091100260911202709129
:10121000130247E05E17B9F18E2F90E0E49FF001D2
:101220001124E852FE4F2481222381F1489FF001CE
:10123000499FF00D1124DF01A852BE4F11962C9149
:1012400011972C1323C02C912D1320C015962C918F
:10125000159721111BC012962D913C91261B370B1F
:10126000283C310598F4809116028F70806180933C
:101270001602E252FE4F80818F708061808380E190
:1012800092E0C8DD7EDFDF91CF910895FC013196B9
:10129000E770C0CF482F2091D6019091D70157E039
:1012A000291302C080E0089530E0529FF001539F5F
:1012B000F00D1124E852FE4F8181681306C0808131
:1012C000481303C085818111EECF2F5F3F4F2770F8
:1012D000E7CFA4E1B0E0EFE6F9E00C9418248C012C
:1012E00086E0F801DE011F9601900D928A95E1F7E4
:1012F000D80114968C9114971596EC90159790E15F
:10130000A92E92E0B92E9091140291111AC088234F
:10131000A9F0EE2089F0C801C9DDF82E882361F01C
:1013200087E0F801D50101900D928A95E1F7C5019A
:1013300076DA57DF47DF3AC0C8016CDDFF24F3944B
:1013400035C0F801C080D18082809380F090150272
:101350002091120230911302A401421B530BFF2073
:1013600009F4E7C0483C510508F09AC08823F1F021
:101370009091110280911602282F207F09F060C001
:101380009D1119C090911002C91215C0E11052C0F0
:101390008F7080618093160215DF80E192E03ADD64
:1013A00080911602D80116968C93F12C8F2D64969D
:1013B000ECE00C943424E1103DC06D2D8C2D6ADFDF
:1013C000E82E882361F080E192E024DD87E0E0E10F
:1013D000F2E0DF011D928A95E9F7F4DEE6CFCF86D1
:1013E000D88A8F859889A6DE292F22952F702430E0
:1013F00058F49F70223080F0992391F0F801968183
:10140000907F71F4FE2CD2CF2A5F2F70223060F0D3
:10141000C80100DDEF2CF6CF992311F0882391F35A
:10142000805E883078F3F4CF803F60F3815F833053
:1014300078F7E8CF80911602816080931602B5CFCD
:101440009D1107C090911002C91203C0EE2009F44B
:1014500094C0C8012BDD882309F46ECFEE2009F477
:101460006BCF80911602803280F020911002309173
:101470001102398728879B868A86909114029C875F
:101480001D868E87CE010896C5DC87E0F801A0E1B5
:10149000B2E001900D928A95E1F7A3DE93DE4ECF84
:1014A00090911602292F207F81F4682D9A8A898ACB
:1014B000A6017A899E2D04DD80E192E0ABDC87E015
:1014C000F50111928A95E9F788CF882309F46ECF48
:1014D000809111028D1110C080911002C8120CC0B1
:1014E000E1100AC016969C93C80194DC87E0F501D0
:1014F00011928A95E9F75ACFC801D8DC882309F4FC
:101500001BCFEE2009F418CF80911602803208F428
:10151000BCCF20911002309111023A8329839C8222
:101520008B82909114029D831E828F83CE0101963F
:10153000ABCF483C510508F042C0882309F4FECEE9
:10154000FE2CEE2009F4F8CE809111028D112BC0F3
:1015500080911002C81227C08091160280FD1AC027
:10156000982F907FB9F016968C931697903F39F08C
:10157000982F907F905F8F70892B16968C93C8015F
:1015800049DC87E0F801A0E1B2E001900D928A9574
:10159000E1F7D0CE87E0F801A0E1B2E001900D9232
:1015A0008A95E1F703CFC80181DC81116ECF80916C
:1015B0001602816080931602C8012CDCF7CE682DDC
:1015C0009A8A898AA6017A899E2D7ADC87E0F501BC
:1015D00011928A95E9F7AECEAEE0B0E0E2EFFAE024
:1015E0000C942124288739874A875B876C877D87FD
:1015F0008E87CE0108966DDE8823A9F06C85662360
:1016000039F0288539854A855B857D858E8562DC44
:1016100017E08091D6019091D70189133BC02E9697
:10162000E3E00C943D2487E0FE013896DE0111963C
:1016300001900D928A95E1F78C85882349F32091DA
:10164000D70130E0C9010196877099274091D601F2
:101650004817190691F097E0929FD001939FB00D23
:101660001124A852BE4FFE01319601900D929A9519
:10167000E1F78093D70185DDCBCFFBDB1092D7015B
:101680001092D60187E0E0E1F2E0DF011D928A9539
:10169000E9F7BECF819FC001112488529E4F19DE09
:1016A000882309F4BCCFE091D6011E9FF0011124DC
:1016B000E852FE4F208131814281538164817581DE
:1016C000868108DC8091D60190E001968770992789
:1016D0008093D6019ECF80911F0286958695869530
:1016E000089580911F028770089590911F0297704E
:1016F00081E009F480E0089580912B020895909193
:101700002B02892B80932B020895809590912B02B8
:10171000982390932B02089510922B020895909194
:101720002A02892B80932A020895809590912A029B
:10173000982390932A02089510922A0208950895FA
:10174000FECF089590912002292F282329F080951B
:10175000892380932002F4CF08950895FECF089541
:1017600090912102292F2823281721F0982B90935C
:101770002102F4CF089590912102292F282329F0E6
:101780008095892380932102E9CF089580912102D9
:10179000882321F01092210280E0E0CF08950F937A
:1017A0001F93CF93DF930091000110910101C0912D
:1017B0002B0280912A02C82B80912102882329F0D4
:1017C000C82B0E94E8198111E1DFF801C083C091A4
:1017D0000001D091010148E050E067E172E0CE01E4
:1017E0000E945D24892B59F088E0FE01A7E1B2E058
:1017F00001900D928A95E1F7CE010E947B19DF914D
:10180000CF911F910F910895CACF08950895FECFEB
:1018100008959091970292FF0EC098E0899F9001E1
:101820001124622B60931F029DDB80911F0286951D
:1018300086958695ECCF96CB10921F0280E0E7CF7D
:1018400090911F028095892380931F02282F277073
:1018500059F4891749F09091970292FF05C0869537
:10186000869586958DDBE8CF08959091970292FB3F
:10187000222720F9281749F080FB92F990939702CC
:1018800086E992E046D082E0DBCF0895809197020E
:1018900082FB882780F991E08927E7CF81E0E5CFB7
:1018A00080E0E3CF60E070E0CB0107C460E070E06F
:1018B000CB01FDD3F7CFA3E0B0E0E1E6FCE00C9470
:1018C0002224AED3B9D31B82CE010396CCD381E0C0
:1018D00090E09093D5018093D401D1D31A821982DC
:1018E0008A8184618A83CE010196DAD3DFDF239671
:1018F000E2E00C943E24DFCF0895A4C3089591C381
:101900000895A6C30895B5C30895B9C30895BCC387
:101910000895C6C30895D7C30895A6E0B0E0E3E9EB
:10192000FCE00C9420240E94AC1B8C0180912C02C2
:1019300090912D028017910781F019821A820E94DE
:10194000AC1B682F49815A81792F80E090E00E947A
:10195000E20310932D0200932C022696E4E00C94EF
:101960003C24FED26093320270933302809334029F
:101970009093350260932E0270932F028093300271
:1019800090933102089508950895FDCF0895089524
:10199000FEDFFBCF0895FECF08950895FEDFFBCF55
:1019A00081E0089589EC9FE012D7EEDFF1CF2BC5DF
:1019B0000895089508950895FCDFFCDFFCCF9FDFB4
:1019C000811101C098DF86E392E09BDF86E992E017
:1019D0009EDF99DF96DA8091D2019091D301AACA55
:1019E0000E94A31B98D214D56DD4E9DF0E9462191E
:1019F0000E94C2030E94341518D5D0CF04D581119E
:101A00000C9463190895A6E0B0E0E9E0FDE00C94C1
:101A10001924C6DF81110AC080DFF0DF0E94D717CA
:101A20000E94CA032696EBE00C94352469D48CE816
:101A3000A82E82E0B82E750110E0F70101917F0118
:101A4000812F4CD31F5F1A3009F446C00817A9F341
:101A50008091360281FD48D3AADF982E10E0812FB5
:101A60003DD3F82EF50181915F01F81681F1DF2C4D
:101A7000D82600E0EE24E3948D2D8E2109F1CC24AC
:101A8000C3948F2D8E2109F4C12C9920A1F0602FD1
:101A9000812F0E94081B81110EC009831A830E94A6
:101AA000AC1B682F8B839C8349815A81792F81E0FD
:101AB0009C2D0E94E2034C2D602F812F0E941C1B45
:101AC0000F5FEE0C0530C1F6F5013197F0821F5F14
:101AD0001A3029F646DFA1CF0813BACF9DCF1F9346
:101AE000CF93DF9325D1EC01C11580E5D807F0F540
:101AF000C11590E4D90708F0A3C0C03ED10520F578
:101B0000CD3CD10508F08BC0C83AD10578F4C53A70
:101B1000D10508F07CC0C130D10519F1209709F139
:101B2000C430D105F0F4D0E0C0E01BC0C33CD10507
:101B3000D0F7C85AD0E0CC0FDD1FC859DE4F09904E
:101B4000D881C02DD4640DC0C11580E2D80708F03B
:101B5000D2C0C11591E0D90708F063C0C83ED105D5
:101B600010F7CE01DF91CF911F910895C03882E523
:101B7000D80770F5C03692E5D90708F07FC0C032AB
:101B800082E5D807C8F4C11592E5D90708F499C0D1
:101B90002C2F2695269580E2289F900111248C2FCA
:101BA0008370C1E0D0E002C0CC0FDD1F8A95E2F760
:101BB000C22BD32BDD68D5CFC03482E5D80708F01F
:101BC00048C0CF71D0E0DC2FCC27C16FD06AC9CF1D
:101BD000C03C92E5D90778F48C2F8F71C03AD2457A
:101BE00008F461C047D1C82FD0E0DC2FCC27CC2728
:101BF000DF71D062B6CFC03E82E5D80708F45AC084
:101C0000C115D34509F08FCFC0E0D0E7AACFC55AA0
:101C1000D0E0C256DE4FC881D0E0D064A2CFD065FC
:101C2000A0CF8D2F27D1182FCE01992781D0C12F7A
:101C3000D0E0DC2FCC27CC27DF71C82BD92B91CF5C
:101C4000CE01992775D0CC27DF70C82BD92BD06A4D
:101C500088CF2C2F26952695277090E2299F9001FA
:101C600011248C2F8370C1E0D0E002C0CC0FDD1FA7
:101C70008A95E2F7C22BD32BDC6873CF2C2F2695E5
:101C80002695277080E2289F900111248C2F837065
:101C9000C1E0D0E002C0CC0FDD1F8A95E2F7C22B75
:101CA000D32BDA685ECFC82FD0E0DC2FCC27C46FEF
:101CB000D06A57CFDC2FCC27CC27DF71C06FD06A1A
:101CC00050CF8C2F8F71D6D055E0D695C7955A95A9
:101CD000E1F7CF70D0E0DC2FCC27282F30E084FF55
:101CE00006C044E0220F331F4A95E1F73327C22B89
:101CF000D32BD06936CF8D2F8F71BCD0182FCE014A
:101D0000992716D0C12FD0E0DC2FCC27CC27DF714C
:101D1000C82BD92B6ECF462F7A3028F4653018F4B3
:101D2000672F0C94C90290E080E00895F4DFD7CECD
:101D300082389105B9F1B0F48133910509F47DC081
:101D400048F48932910509F46DC08A32910509F48D
:101D50007BC008958533910509F45FC089339105EF
:101D600009F10895833E9105D9F138F4803E91053B
:101D700029F1823E910579F10895863E9105D9F1C8
:101D8000873E910509F43EC0843E910541F52091BE
:101D9000970221FF24C08091960284FD19C087EE2E
:101DA00090E0089520919602237009F05AC0209186
:101DB000970223FF14C089E290E0089520919602D3
:101DC00020FD38C03091970230FF09C024FF43C086
:101DD00090E080E008952091960222FDF7CF0895CB
:101DE0002091960222FD3AC03091970230FD39C011
:101DF00024FFF5CFEDCF2091960223FFF0CF24FDF5
:101E0000E7CFCDCF2091960223FD2EC030919702CF
:101E100031FFEECF84EE90E008952091960225FFE9
:101E2000DECFC9CF2091960225FD21C020919702D7
:101E300023FFD5CF89E390E0D2CF2091960226FFF1
:101E4000CECF8AE290E008952091960226FFC7CF78
:101E500081E390E0089583EE90E0089582EE90E0B3
:101E6000089580EE90E0089586EE90E0089585E371
:101E700090E008959091960292FF10C041E0282FC3
:101E80002471243009F040E031E0282F28712830F7
:101E900009F030E0431711F02CE0822793FF10C0C7
:101EA00041E0282F2471243109F040E031E0282F4F
:101EB0002871283109F030E0431711F02CE0822717
:101EC0003091970230FF10C051E0282F217121304E
:101ED00009F050E041E0282F2871283009F040E057
:101EE000541711F029E0822731FF10C041E0282F5C
:101EF0002171213109F040E031E0282F287128318B
:101F000009F030E0431711F029E0822794FF02C066
:101F100083FD877E08951092980210929902109284
:101F20009A0210929B020895CF92DF92EF92FF9255
:101F30006B017C0168D281110EC00E94B81BC61AC9
:101F4000D70AE80AF90AC0929802D0929902E09260
:101F50009A02F0929B02FF90EF90DF90CF9008954D
:101F60000F931F9350D2882329F00E94B81B1F9112
:101F70000F9108950E94B81B009198021091990248
:101F800020919A0230919B02600F711F821F931F54
:101F9000EECF80E00895CF939C01205E3245C1E0F2
:101FA0002032310538F4FB01C581C11103C08F71A6
:101FB0000E947A038C2FCF9108959C01FB018581AB
:101FC000882391F02B35FCE73F0761F02C359CE727
:101FD000390729F02A353C4741F460DC01C056DC62
:101FE00080E008955DDCFCCF81E008959C01FB0159
:101FF0008581882399F02130FCE73F0761F0233089
:102000009CE7390739F021153C4749F40E94A203A7
:1020100080E0089572DC0E94A603FACF81E0089563
:10202000089590E080E00E947B2421E0833E9E4F53
:1020300009F020E0822F089563EE7EEF90E080E0CB
:102040000C949A246FEF7FEF90E080E00C949A2438
:10205000CF93DF93EC0182E090E00E9473248883A9
:10206000DF91CF910895FC01608182E090E00C94B3
:10207000802483E090E00E94732490E00895682F0C
:1020800083E090E00C948024CF93DF93EC0184E014
:1020900090E00E947B2499838883DF91CF910895FB
:1020A000FC016081718184E090E00C949A24AB0182
:1020B000BC018FE090E00C949224AB01BC0183E161
:1020C00090E00C949224682F8EE090E00C94802491
:1020D0000895FECF08950895FECF0895E82FF0E00B
:1020E000E955FD4F80810895089580EA8A95F1F7BA
:1020F000089500C00895F9CF08950895FECF08957A
:10210000A5E0B0E0E6E8F0E10C941E247CD1F82EC6
:102110006091B102882309F43EC085E0E82E8E016B
:102120000F5F1F4FF8018E2D11928A95E9F7862FC8
:1021300090E0B80189559D4F84D18823B1F08091FA
:102140009C0290E045E050E0B80189559D4F0E9407
:102150005D2421E020933702892B89F4F12CBCDF28
:102160008F2D2596E6E00C943A248091370288233F
:10217000A9F3F8011192EA94E9F710923702A091BD
:102180009C02B0E0A955BD4F85E0F80101900D9289
:102190008A95E1F7E4CF70E069557D4F80919C020C
:1021A00090E089559D4FD2D1A9DFDACFF894E82F7E
:1021B000E295EF70F0E031A1282F2F7081E090E0E0
:1021C00001C0880F2A95EAF7982F9095932391A341
:1021D00092A1892B82A378940895CF93DF93C6EAC6
:1021E000D1E089918F3F09F0E1DF81E0CB3AD80758
:1021F000C1F7C1EAD1E089918F3F09F0D7DF81E0D3
:10220000C63AD807C1F7DF91CF910895B0E0A0E0BA
:10221000ECE0F1E10C941C24EC01D62E062F10E02A
:10222000C8018A559E4F7C01FC0180818F3F09F4D3
:1022300042C0F894E82FE295EF70F0E091A18F7022
:1022400021E030E001C0220F8A95EAF7892F822B26
:1022500081A382A12095282322A378944ADFE1EA72
:10226000F1E046EA51E031E0C12C21912F3F41F1EC
:10227000A22FA295AF70B0E090968C9190E02F7055
:1022800002C0959587952A95E2F780FD19C0832FA6
:10229000C82A330F4E175F0741F7F70180818F3F40
:1022A00009F084DF61E0C11001C060E08D2D23DF03
:1022B000C00FD11FC882CDB7DEB7E8E00C94382438
:1022C00080E0E6CF809102018091020195E08111CA
:1022D00090E09093B10285E0891B80939C027DDFA2
:1022E0008AE0E7EAF2E0DF01982F1D929A95E9F77C
:1022F000EDE9F2E0DF011D928A95E9F73BD0E9CEE6
:10230000AAE0B0E0E6E8F1E10C941F248E010F5F33
:102310001F4F8AE0F80111928A95E9F7F12C6F2D91
:10232000C80174DFF394F5E0FF12F9CF4AE050E002
:10233000B8018DE992E00E945D2441E0009709F424
:1023400040E0892B41F08AE0F801ADE9B2E001906C
:102350000D928A95E1F76091B10270E069557D4F69
:102360008DE992E008D0182FCBDE812B2A96E5E08C
:102370000C943B240895EF92FF920F931F93CF93F9
:10238000DF937C018B01C42F442379F081E080939B
:102390003A020E94AC1B909339028093380280E08D
:1023A000CDB7DEB7E6E00C943A24D0913A02DD23B3
:1023B000B1F380913802909139020E942D1B05974C
:1023C00070F345E050E0B701C8010E945D24892BFD
:1023D00041F085E0F701D80101900D928A95E1F76F
:1023E000CD2F10923A028C2FDBCFCF930E94EC239B
:1023F000C82F811102C00E94E8238C2FCF9108952D
:1024000080913E02089580913D020895FCCF089589
:10241000ECDF80933D02FADF80933E02F1DF809390
:102420000201F1DF811142C00895EDDF811101C089
:1024300040C0089581E090913F029A3008F080E01A
:1024400008950F931F93CF93DF93EC018B0180913D
:102450003F028A30B0F4B801CE0176D0C82F811186
:1024600022C080913F028F3FB9F40E94AC1B909331
:102470003C0280933B028C2FDF91CF911F910F91F3
:10248000089580913B0290913C020E942D1B843F55
:10249000914008F7C0E0EFCF8F5F80933F028A3012
:1024A00020F7C1E0E8CF10923F02E5CF0C94581C12
:1024B00008950C945B1C0895B0E0A0E0E2E6F2E120
:1024C0000C941D247901C82F880FDD0B411551058F
:1024D000A9F0FE0193E0EE0FFF1F9A95E1F7ED5F83
:1024E000FE4F81819281805C9D4F208130E04217B8
:1024F000530708F49A01A9010E946A24CE010E94A0
:102500003B1DD82E8823D1F001151105B9F083E0C9
:10251000CC0FDD1F8A95E1F7FE01ED5FFE4F438191
:1025200050E00417150708F4A801CD5FDE4F6C8159
:102530007D81605C7D4FC7010E946A248D2DCDB7DF
:10254000DEB7E7E00C943924E7C00895FAC0089597
:10255000A4E0B0E0EEEAF2E10C942024609157028E
:10256000709158028091590290915A020E94361B34
:1025700011E0643671058105910508F1F1DC6E5FAB
:102580007F4F8F4F9F4F69837A838B839C8310E0AB
:1025900000E030E020E044E050E0BE016F5F7F4F9C
:1025A00082E08ADF182F882351F00E94B81B6093C5
:1025B0005702709358028093590290935A02812FC8
:1025C0002496E4E00C943C24B0E0A0E0EAEEF2E1D2
:1025D0000C941A247C015B016A012CDF01E010E0FD
:1025E000882311F00AE010E0C1E0D0E0B501C70196
:1025F000F6010995811104C021960C171D072CF4D2
:10260000CDB7DEB7EAE00C943624CC9F9001CD9F85
:10261000300D300D112490E080E045E34A95F1F74C
:102620000000019682179307C1F7E0CFA6E0B0E063
:10263000ECE1F3E10C941A247B01C090AB01D09043
:10264000AC0101E010E09E012A5F3F4F50E040E006
:1026500070E060E080E030DF182F882309F444C088
:1026600056018FEFA81AB80A609153027091540274
:102670008091550290915602F9D764367105810513
:10268000910558F105E010E09E012F5F3F4F50E0AB
:1026900040E070E060E081E00FDFD82E65E070E0A0
:1026A000C501E3D111E09E81981310E01D2139F19D
:1026B0000E94B81B6093530270935402809355029A
:1026C0009093560285E0FE013196AEE4B2E00190AF
:1026D0000D928A95E1F711E012C065E070E0C50146
:1026E000C4D19E818913CECF85E0F6013196DE01FB
:1026F000119601900D928A95E1F71111E3CF85E0D3
:10270000EEE4F2E0D70101900D928A95E1F7812F76
:102710002696EAE00C9436240F931F93CF93DF9311
:10272000EC018B0146E153E14FDF882329F048EAB1
:1027300052E1B801CE0148DFDF91CF911F910F9197
:1027400008950F931F93CF93DF93C091AB01D09166
:10275000AC01CE01019625E0FB01DC0101900D9258
:102760002A95E1F765E070E080D188836E817F81F2
:102770008885998500914A0210914B0220914C0264
:1027800030914D02601771078207930749F06093FB
:102790004A0270934B0280934C0290934D02C4DB2B
:1027A000DF91CF911F910F9108952DC908956ED794
:1027B0000E94CF1EF7D80E94E71E12D90E94F01E79
:1027C0000E94F31EF2DF0E94091FF6D8F9CF909302
:1027D000AF018093AE0108958B3109F464C040F5D8
:1027E0008B3071F078F4863009F446C020F48530DF
:1027F00059F180E00895873009F447C08830C9F75F
:1028000081E00895803109F45CC068F48E3089F766
:1028100090913602892F8B7F92FF846080933602DD
:1028200082FD4BC0EDCF863159F3893149F3E1CFB9
:102830008A3201F160F48732B1F020F48E31C8F2AF
:102840008D514BC08932A9F60E94A203D9CF83349F
:1028500040F48A3308F040C0853329F0883381F290
:10286000C8CF833431F681E090E00E9481070E9456
:102870003907C6CF40D8C4CF80913602807F80937D
:10288000360281E080935E02089590913602892F8E
:102890008E7F90FF81608093360280FDB1CF817F73
:1028A00080933602ADCF90913602892F8D7F91FFB4
:1028B00082608093360281FFA3CF809136028160CF
:1028C000EFCF90913602892F877F93FF88608093A6
:1028D000360283FDF2CF94CF895321E030E0A90185
:1028E00002C0440F551F8A95E2F7CA01BECF80E0AF
:1028F0000895FDCF0895CF93C82F80915E02813057
:10290000A9F0882331F0823089F110925E0280E0D4
:102910000BC00E947C0B8232D1F78C2FE8DF811133
:1029200019C08C2F59DF8170CF9108950E947C0BC4
:10293000823299F38C2FDDDF81110AC0C43199F006
:1029400060F4CB3029F0C03171F782E080935E02F1
:1029500081E0E9CF81E090E0E6CFC93221F0C833D1
:10296000B9F380E0E0CF10925E02FBCFC93209F4E8
:102970003FC0E8F4C431E1F128F4C73009F45BC08A
:1029800081E0D2CF82EE8C0F8A30D0F7CD51C09348
:102990005D02C33009F446C0B0F5C13009F43FC050
:1029A00080E291E0C230B1F110925D02E9CFC03512
:1029B00009F452C0B8F48AE0CF3411F7E0915B0219
:1029C000F0915C023097E1F22081082E000C990B07
:1029D000820F911D8F3F910509F00CF441C08FEFDC
:1029E0008083CECFC135D1F181E0C23539F39CCFA0
:1029F00080915D02882321F210925D0210925C02A8
:102A000010925B02BDCFC53099F078F08BE191E078
:102A1000C63051F690935C0280935B02B1CF81E6A1
:102A200092E0F8CF8FE191E0F5CF8EE191E0F2CF27
:102A30008CE191E0EFCF1092610284E1809320015C
:102A4000C0931F018CE380931E0188E080931C01DA
:102A500088E280931B0194CF86EFB0CF8FEFAECF8B
:102A600097FFBECF10828CCF0895FC01680F791FAD
:102A70008FEF91E36E177F0709F408952191822764
:102A800028E030E087FF06C0880F892721503109F0
:102A9000C9F7F0CF880FFACFCF93DF93EB018631E0
:102AA0009C4701F50E947C0B9D81992391F08A7AC5
:102AB00091E009F490E090935F02811108C089E2EF
:102AC000D7D40E94040C80E0DF91CF91089585E374
:102AD000F7CF80915F02811103C089E2CFD4F1CF9B
:102AE00085E3FCCF81E0F0CFCF93DF93EC01FB01D6
:102AF0008581882309F4CEC09E01305723323105E9
:102B000008F0AEC086E992E00E94870CFE01E15019
:102B1000F047E232F10520F4E454FB4D0C940C2410
:102B20008091960281608093960293C08091970273
:102B30008860809397028DC0809196028260F3CF67
:102B4000809196028460EFCF809196028860EBCFEF
:102B5000809197028160EDCF809197028260E9CFEA
:102B6000809196028061DFCF809196028062DBCFF8
:102B7000809196028064D7CF0E9439078091960297
:102B80008068D1CF809196028C60CDCF80919702E2
:102B90008360CFCF809196028E7FC5CF80919702C0
:102BA000877FC7CF809196028D7FBDCF809196029F
:102BB0008B7FB9CF80919602877FB5CF80919702A6
:102BC0008E7FB7CF809197028D7FB3CF8091960291
:102BD0008F7EA9CF809196028F7DA5CF809196029E
:102BE0008F7BA1CF0E943907809196028F779BCF70
:102BF00080919602837F97CF809197028C7F99CFA7
:102C00008091960282FB992790F921E0922790FB10
:102C100082F990FB83F987CF80919702982F909546
:102C200091708E7F892B90FB81F983CF90919602D2
:102C3000892F8F7B96FF806476CF0E943907909111
:102C40009602892F97FB87F980586DCF81E00E940B
:102C50008B0C86E992E00E94890C0E94390780E083
:102C6000DF91CF91089580E0F2CF90919602892F65
:102C70008F7E94FF806157CF90919602892F8E7F2F
:102C800090FF816050CF90919702892F877F93FFAB
:102C900088604FCF81E0E4CF282F35EB2303C001BC
:102CA000112497FF04C080589109892F08958058F6
:102CB0009F4FFBCF8091680280FF0DC060911F0184
:102CC00070E0660F771F6038710570F5611571054A
:102CD00069F1862F089581FF07C060911F0184E08C
:102CE000689FB0011124EFCF60911F0182FD0AC0DF
:102CF000809167028823A9F020911E0160911F0135
:102D0000821710F088E0ECCF869FC001112433E0D9
:102D1000880F991F3A95E1F7622F70E00E94F9231E
:102D2000D2CF68E070E0D5CF8FE7089581E00895B5
:102D30008091680280FF0CC060911C0170E0759565
:102D40006795759567956115710549F1862F089509
:102D500081FF06C060911C0170E075956795F3CF07
:102D600060911C0182FD0BC0909166029923A1F035
:102D700060911B0180911C01961738F0682F70E05C
:102D80006038710500F38FE70895899FC001112411
:102D900070E00E94F923F4CF61E070E0D7CF81E0CA
:102DA00008958D3C29F486DF819580936C02089507
:102DB0008E3C11F47FDFF9CF8F3C29F47BDF8195C6
:102DC00080936B020895803D11F474DFF9CF893D43
:102DD00021F4AEDF80936D0208958A3D19F4A8DFD7
:102DE0008195F8CF8B3D29F4A3DF819580936E0206
:102DF00008958C3D11F49CDFF9CF9FE2980F983035
:102E000070F4815D990B21E030E001C0220F8A95BA
:102E1000EAF780916A02822B80936A0208958D3DC1
:102E200031F48091680281608093680208958E3D3C
:102E300021F4809168028260F7CF8F3DB9F78091CD
:102E400068028460F1CF40916B028D3C59F480910F
:102E50006C0287FF0DC010926C0241110BC01092E2
:102E6000670208C08E3C81F480916C0218169CF3B6
:102E7000442381F080916D0290916E02892B09F0BC
:102E80005AC01092660208958F3C49F447FFF0CF74
:102E900010926B0280916C028111ECCFE0CF803DEB
:102EA00019F41416ACF3E4CF90916D02893D29F426
:102EB0001916F4F610926D02DBCF8A3D19F497FFD4
:102EC000D7CFF8CF90916E028B3D29F497FFD0CFEA
:102ED00010926E02CDCF8C3D19F41916CCF3C8CFE9
:102EE0009FE2980F983090F4815D990B21E030E0DB
:102EF000B90102C0660F771F8A95E2F7CB01809572
:102F000090916A02892380936A02B2CF8D3D31F499
:102F1000809168028E7F80936802AACF8E3D21F453
:102F2000809168028D7FF7CF8F3D09F0A1CF80910E
:102F300068028B7FF0CF08950FD49C0190916B02B3
:102F400080916C02982B21F03093650220936402EB
:102F500090916D0280916E02982B21F03093630264
:102F60002093620289E692E0D3C186E0E9E6F2E0CE
:102F7000DF011D928A95E9F71092670210926602AE
:102F8000109268020895FC01828181110EC0838134
:102F900081110BC08481811108C091E0858181116C
:102FA00001C090E0892F8170089581E0FCCFA6E0F8
:102FB000B0E0EDEDF7E10C94212486E0E9E6F2E0E3
:102FC000DE01119601900D928A95E1F710926B0245
:102FD00010926C0210926D0210926E028B819C8195
:102FE000892B81F0809164029091650236D3AC0107
:102FF000909167029923A9F1809120018417150609
:1030000008F43CC08D819E81892B89F080916202F9
:103010009091630222D3AC0190916602992309F446
:1030200063C080911D018417150608F46BC0BE01B2
:103030006F5F7F4F89E692E032D2811104C089E64A
:1030400092E0A1DF811178DF86E0FE013196A9E6EA
:10305000B2E001900D928A95E1F72696E3E00C9498
:103060003D24209161028AE0289F900111242417B9
:10307000350740F69F5F9093670202C09F3FD1F7EC
:103080001B81112351F016DE9FEF11160CF491E015
:10309000899F802D112480936B021C81112351F094
:1030A00009DE9FEF11160CF491E0899F802D112409
:1030B00080936C0280916B02882309F4A3CF109156
:1030C0006C02112309F49ECFE7DD882349F0809339
:1030D0006B02812FE1DD882329F080936C0292CF6F
:1030E00081E0F5CF81E0F9CF209160028AE0289F4E
:1030F000900111242417350708F099CF9F5F909312
:10310000660202C09F3FD1F71D81112351F010DEEE
:103110009FEF11160CF491E0899F802D112480936C
:103120006D021E81112351F003DE9FEF11160CF486
:1031300091E0899F802D112480936E0280916D0211
:10314000882309F474CF10916E02112309F46FCF14
:10315000A3DD882349F080936D02812F9DDD8823B4
:1031600029F080936E0263CF81E0F5CF81E0F9CF43
:103170000F931F93CF93DF93C42FD22FFC01858130
:103180008823C1F040937102E7D29093700280933C
:103190006F0280E28C0F883040F4C77081E001C07C
:1031A000880FCA95EAF70E941A05DF91CF911F9107
:1031B0000F91089510917102141331C080916F0224
:1031C000909170024AD2883C910548F5C0E2CD0F3B
:1031D0001D17B9F080E2810F883040F4177081E04C
:1031E00001C0880F1A95EAF70E941F05C83048F4FD
:1031F00081E09D2F977001C0880F9A95EAF70E9491
:103200001A05802F0E941305C83078F6D77081E028
:1032100001C0880FDA95EAF70E941F05C6CF80E249
:103220008C0F883010F6C77081E001C0880FCA95F6
:10323000EAF7F2CF0F93DB0188519C478730910565
:1032400098F5FC01E252FB4D0C940C2406E221EEB1
:1032500041EE6AE17CE7CD018BDF80E00F910895BC
:1032600007E225EE45EE6BE17CE7F5CF06E221EEC5
:1032700040EE68E17CE7EFCF07E225EE44EE69E13E
:103280007CE7E9CF06E221EE42EE6CE17CE7E3CF9A
:1032900007E225EE46EE6DE17CE7DDCF08E221E0B6
:1032A00045EE6EE17CE7D7CF15968C91882319F017
:1032B00010927102D3CF81E0D1CF909378028093A6
:1032C00077020895089508959ED8811103C08091D2
:1032D00072020895E0917702F0917802309739F008
:1032E0000190F081E02D309711F00995089580E06C
:1032F0000895EACF0895E0917702F091780230972F
:1033000031F00280F381E02D309709F0099508959E
:10331000E0917702F0917802309759F02681378159
:10332000232B39F022E0DC012C930680F781E02D7D
:1033300009950895A3E0B0E0E0EAF9E10C942224B5
:10334000209175023091760228173907B1F09093D9
:10335000760280937502E0917702F09178023097BF
:1033600061F00084F185E02D309739F023E0298366
:103370009B838A83CE01019609952396E2E00C9403
:103380003E24A3E0B0E0E7ECF9E10C942224209184
:1033900073023091740228173907B1F090937402C8
:1033A00080937302E0917702F0917802309761F098
:1033B0000084F185E02D309739F024E029839B8348
:1033C0008A83CE01019609952396E2E00C943E246F
:1033D00040910001509101019A012E5F3F4F485FDB
:1033E0005F4F80E02417350709F40895F9019191A2
:1033F0009F019923B9F38F5FF5CF882371F0209156
:10340000000130910101F9013296285F3F4F9191FF
:10341000981729F0E217F307D1F780E0089581E0CB
:1034200008959C01FC0132969FEF80E04191461780
:1034300051F09F3F19F4411101C0982F8F5F8630E2
:10344000A9F79F3F09F40895290F311D97FD3A957B
:10345000F90162830895FC013296089621912613A2
:1034600003C0DF0111971C92E817F907B9F7089517
:10347000682F8091000190910101D3CF682F809136
:10348000000190910101E7CFE0910001F09101016D
:10349000329686E0DF011D928A95E9F70895DC01F6
:1034A000FB0111969C9111978181981322C012966D
:1034B0008C911297882319F0928189131AC0139660
:1034C0008C911397882319F09381891312C0159654
:1034D0008C911597882319F0958189130AC0149649
:1034E0009C91992321F081E02481291303C080E07D
:1034F00001C081E08170089521E0FC0121830895DD
:10350000FC01118208950895FECF089581110CC029
:1035100081E08093240160912101709122018091CA
:10352000230190912401F0CF82E0F3CF83E08093D8
:1035300024016091210170912201809123019091D9
:103540002401E2CFE3CF089581E0809324016091CC
:103550002101709122018091230190912401D4CF07
:10356000F3CF089591E0811101C090E09093230181
:103570006091210170912201809123019091240199
:10358000C3CF80912301089580932201609121018E
:10359000709122018091230190912401B5CF8091F7
:1035A00022010895809321016091210170912201EF
:1035B0008091230190912401A7CF8091210108954A
:1035C00008950895FECF089508950895F9CF0895B8
:1035D0000F931F93CF93DF93F7DF0E948011F5DFE6
:1035E00009E712E0C0E0D0E08C2F0E946E10F801D5
:1035F00081938F0191E0811101C090E0D92BCF5FC1
:10360000CA3091F78D2FDF91CF911F910F910895BF
:10361000E82FF0E0E758FD4F208130E081E090E0B6
:1036200002C0880F991F6A95E2F72823392381E0A9
:10363000232B09F480E0089541110EC0E82FF0E03B
:10364000E758FD4F21E030E001C0220F6A95EAF70C
:1036500020958081282320830895CF93DF93EC0168
:103660007BD08C1B9D0BDF91CF910895CF92DF9281
:10367000EF92FF926B017C017BD06C197D098E0962
:103680009F09FF90EF90DF90CF90089585B78068F5
:1036900085BF85B7806885BF08951F921FB61F92AA
:1036A00011248F939F93AF93BF93809183028111D5
:1036B00013C08091B2029091B302A091B402B09174
:1036C000B5024196A11DB11D8093B2029093B30241
:1036D000A093B402B093B502BF91AF919F918F9127
:1036E0001F901FBE1F9018958091BA02843031F14F
:1036F0000E94AA031092830288E190E020E40FB6B2
:10370000F894A895809360000FBE2093600083B763
:10371000817F846083BF83B7816083BF78948895FD
:1037200083B78E7F83BF0FB6F894A8958091600011
:10373000886180936000109260000FBE08950E941F
:1037400039070C94AE0382E084BD93E095BD9AEFF7
:1037500097BD80936E0008952FB7F8948091B202C0
:103760009091B302A091B402B091B5022FBF089519
:103770002FB7F8946091B2027091B3028091B402B5
:103780009091B5022FBF089578941F921FB61F9293
:1037900011248F939F93AF93BF938091B202909126
:1037A000B302A091B402B091B5020196A11DB11D62
:1037B0008093B2029093B302A093B402B093B50287
:1037C000BF91AF919F918F911F901FBE1F90189531
:1037D00087E797E7909301088093000888E19AE0D3
:1037E0000FB6F894A895809360000FBE9093600088
:1037F000FFCF88E19AE00FB6F894A8958093600017
:103800000FBE90936000FFCF8EE1489B02C08150B5
:10381000E1F7489BFECF0895589880E28A95F1F72A
:10382000589A0895FC013BE03A95F1F798E020E0C2
:1038300080E031E040E14A95F1F7880F489B02C0F3
:103840008160232742E04A95F1F7000040E14A9564
:10385000F1F7915079F790E19A95F1F799B132E04B
:103860003A95F1F7000040E14A95F1F791709227FF
:103870002081920F90830895A1E0B0E0E1E4FCE1A3
:10388000DDC719828C017C01E60EF11C0E151F05A7
:1038900039F481E09981911180E02196E6E0EAC750
:1038A000B3DFCE010196BEDFF80181938F01EECF29
:1038B000509A589A08955098589AE89AE9E6F0E094
:1038C00080818C7F808308956150770B91E001C0E7
:1038D000990F6A95EAF720E031E0911108C02223A0
:1038E00091F0589A80E28A95F1F758980895492FF7
:1038F000482339F0589A232740E24A95F1F79695E4
:10390000ECCF5898F9CF5898EDCFFF920F931F93B3
:10391000CF93DF93EC018C01060F111DC017D10767
:1039200021F4CDB7DEB7E5E0A6C7F99075DF68E012
:103930008F2DCADFF3CF1F920F920FB60F92112473
:103940000F931F932F933F934F935F936F937F93A7
:103950008F939F93AF93BF93EF93FF93CF93DF9397
:103960000F92CDB7DEB719824FDFCE0101965ADF35
:10397000082F069506950695282F22952570902FDD
:103980009570290F922F937026952695920F982760
:1039900097708981982B09F058C0043008F055C001
:1039A00080E18A95F1F7589A509A82E08A95F1F76A
:1039B00000C0589888E0089F80011124D801AD5FAD
:1039C000BE4F1696ED91FC9117973097A9F0609134
:1039D000AB017091AC0114962D913C911597260F77
:1039E000371F11968D919C911297680F791F13962E
:1039F0004C9113978C910995F801ED5FFE4F63810F
:103A0000662349F02091AB013091AC01848195810E
:103A1000820F931F7ADF00DF80E18A95F1F75898D3
:103A20005098589A80E18A95F1F7F801ED5FFE4FC2
:103A30006081662349F02091AB013091AC01818116
:103A40009281820F931F18DFDFDE0F90DF91CF91FD
:103A5000FF91EF91BF91AF919F918F917F916F9166
:103A60005F914F913F912F911F910F910F900FBE3A
:103A70000F901F9018950F931F93CF93DF93EC0136
:103A800004970CF049C0F894509A589885E08A95AC
:103A9000F1F700009C2F969595708C2F8570980FEC
:103AA000892F83709695969523E0CC0FDD1F2A957C
:103AB000E1F7980F8E01092BAFDE00C068E0802F80
:103AC00003DF80E18A95F1F75098589A489B1DC012
:103AD00087E090E048991BC0FE01ED5FFE4F6381D7
:103AE0006623F1F02091AB013091AC018481958186
:103AF000820F931FC1DE811113C0509A589A789497
:103B0000DF91CF911F910F91089500C0DFCF0197F2
:103B100029F4509A589A789480E0F2CF00C0DACF16
:103B200073DE80E28A95F1F75898509A80E18A9581
:103B3000F1F7CD5FDE4F6881662349F02091AB013C
:103B40003091AC0189819A81820F931FDEDE64DEA1
:103B5000789481E0D5CF08959B01BA019091BA0283
:103B60009430E1F48F708093E9009FEF8091E8003A
:103B7000915085FD06C085ED8A95F1F70000911101
:103B8000F5CF8091E80085FF09C050E040E0C90111
:103B9000B5D18091E8008E778093E800089543E0E6
:103BA00050E0BC0182E0D8CF46E050E0BC0182E0AA
:103BB000D3CFCF93DF93EC01E4DC48E050E0BE01CB
:103BC00081E0CADF88E0FE01A4E8B2E001900D9236
:103BD0008A95E1F7DF91CF9108958091B902811123
:103BE00007C01AD371D38091E20084608093E20011
:103BF00008951092B9020895A7DC81E0B3CC6091DA
:103C0000B60281E0611101C080E090CC9091BA02CF
:103C100081E0943009F080E06091B60293CC42E0FC
:103C200061EC81E075D242E261EC82E071D2909168
:103C3000BA0281E0943009F080E06091B60266CC6F
:103C40008091BC02833009F45EC030F48130C1F150
:103C5000823009F494C008958A3009F483C08B300F
:103C600009F46BC0893009F04DC08091BB028132EC
:103C700009F048C08091BF029091C002029708F0FD
:103C800041C08091E800877F8093E8008091E80040
:103C900082FF34C09091F3008091F200029731F4DA
:103CA0008091F100813011F0863019F48091F1009B
:103CB0006BDC8091E8008B778093E8005DD222C0B6
:103CC0008091BB02813AF1F48091E800877F809374
:103CD000E8008091BF029091C002892B59F468E0FE
:103CE00084E892E070E057D18091E8008B77809370
:103CF000E800089560E090E080E0F4CF8091BA029F
:103D00008111C4CF08958091BB02813AD9F7809187
:103D1000BF029091C002892BA9F78091E800877FAC
:103D20008093E8008091E80080FFFCCF2ADC80933C
:103D3000F1008091E8008E77BFCF8091BB02813285
:103D400009F78091BF029091C002892BD9F680912A
:103D5000E800877F8093E8000FD28091BD0202DCEB
:103D60000C9439078091BB02813261F68091E800A2
:103D7000877F8093E80000D28091BE0213CC8091AF
:103D8000BB02813A09F0BECF8091E800877F809323
:103D9000E8008091E80080FFFCCF0FDCC8CF84B73B
:103DA000877F84BF0FB6F894A895809160008861E2
:103DB00080936000109260000FBE80E890E00FB624
:103DC000F89480936100909361000FBEC9CB24D218
:103DD0007BD2E2EEF0E08081846080837894DEC460
:103DE00085E291E06ACA8091BA02853029F4809117
:103DF000BA02853011F0A3CC089576DCE9DB882384
:103E0000B1F38091B802882391F362D00E94390700
:103E1000EECF08959A014091C1025091C20200C0B4
:103E2000492F55274330510519F168F441305105A8
:103E300009F444C04230510509F445C090E080E0E7
:103E400050E040E025C04132510549F14232510570
:103E5000A9F78CE490E042ED54E061157105C1F0E2
:103E60008BE790E047E554E06130710589F0E6CFDB
:103E700099278130910581F0009729F00297F1F69A
:103E8000ECECF3E002C0E6E0F4E0849190E0AF01F6
:103E9000F901518340830895E6EFF3E0F6CF89E01E
:103EA00090E04CE154E06115710591F389E090E0F8
:103EB00045E354E06130710559F3C0CF82E190E0F1
:103EC00045E454E0E5CF8BE390E04AE054E0E0CFF6
:103ED00080E189BD82E189BD09B400FEFDCF8091FA
:103EE000D8008F7D8093D8008091E000826080931D
:103EF000E0008091E00081FDFCCF0895AF92BF9279
:103F0000CF92DF92FF920F931F93CF93DF936C01B9
:103F1000EB018A0150D1F82E811123C00115110542
:103F200039F0F80180819181C81BD90BC80ED91EC8
:103F3000B12CA12C2097A9F08091E80085FD21C02B
:103F40008091E8008E778093E80001151105A1F0BB
:103F5000F80180819181A80EB91EB182A08285E00E
:103F6000F82E8F2DDF91CF911F910F91FF90DF9051
:103F7000CF90BF90AF9008951ED18823D9F2F82E2C
:103F8000F0CFF60181916F018093F1002197FFEF4F
:103F9000AF1ABF0ACFCFFC018091C1029091C2023B
:103FA00086179707A0F06115710529F49091E80034
:103FB0009E779093E80090E06115710551F491119E
:103FC00008C08091E80082FF34C080E00895BC0101
:103FD000F2CF8091BA028823C1F18530C1F180917E
:103FE000E80083FD30C08091E80082FDEACF809137
:103FF000E80080FFE1CF8091F3002091F200382F9C
:104000006115710519F02830310558F091E028301C
:10401000310509F090E02091E8002E772093E80028
:10402000CBCF81918093F100615071092F5F3F4F99
:10403000E7CF8091BA02882341F0853041F080912A
:10404000E80083FFBECF81E0089582E0089583E019
:104050000895FC018091C1029091C20286179707D2
:10406000A0F06115710529F48091E8008E778093A6
:10407000E80090E06115710551F4911108C080913C
:10408000E80082FF35C080E00895BC01F2CF809146
:10409000BA028823C9F18530C9F18091E80083FD17
:1040A00031C08091E80082FDEACF8091E80080FF76
:1040B000E1CF8091F3002091F200382F6115710556
:1040C00019F02830310558F091E02830310509F019
:1040D00090E08091E8008E778093E800CBCF8491C8
:1040E0008093F1003196615071092F5F3F4FE6CF09
:1040F0008091BA02882341F0853041F08091E80038
:1041000083FFBDCF81E0089582E0089583E00895A4
:10411000982F973028F08F708093E90081E0089500
:104120009093E900242F762F50E0981731F070918A
:10413000EC002091ED005091F00021FD02C09F5F46
:10414000E8CF3091EB003E7F3093EB003091ED00F3
:104150003D7F3093ED003091EB0031603093EB0008
:104160007093EC002093ED005093F0002091EE004E
:1041700027FDE5CF80E008958091BB0287FF13C043
:104180008091E80082FF06C08091E8008B778093E1
:10419000E80004C08091BA028111F2CF08958091A5
:1041A000BA028823D9F38091E80080FFF8CF80918C
:1041B000E8008E77ECCF2091E4003091E50095E6A1
:1041C000A9012091EC00822F817020FF06C0809110
:1041D000E80080FF06C080E008952091E80022FDFD
:1041E0001AC08091BA02882389F0853089F08091C5
:1041F000EB0085FD0FC02091E4003091E5004217EF
:104200005307F9F29150E1F684E0089582E00895B1
:1042100083E0089581E0089567D06ED0E0EEF0E08D
:10422000808181608083E8EDF0E080818F778083FA
:1042300019BCA7EDB0E08C918E7F8C9380818F7E2E
:1042400080831092B90208950F931F93CF93DF9349
:104250004BD052D0C8EDD0E088818F778883888199
:104260008068888388818F7D888319BC1092BA0208
:104270001092B6021092B8021092B70200EE10E04F
:10428000F80180818B7F808388818160888342E010
:1042900060E080E03DDFE1EEF0E080818E7F8083B2
:1042A000E2EEF0E08081816080838081886080839D
:1042B000F80180818E7F8083888180618883DF918F
:1042C000CF911F910F910895E8EDF0E080818F7EEE
:1042D0008083E7EDF0E080818160808384E082BFAD
:1042E00081E08093B902B0CFE8EDF0E080818E7F6D
:1042F00080831092E20008951092DA001092E1009B
:1043000008951F920F920FB60F9211242F933F938F
:104310004F935F936F937F938F939F93AF93BF93CD
:10432000EF93FF938091E10082FF0AC08091E20049
:1043300082FF06C08091E1008B7F8093E1002DD247
:104340008091DA0080FF18C08091D80080FF14C0EF
:104350008091DA008E7F8093DA008091D90080FF0F
:1043600091C080E189BD82E189BD09B400FEFDCF25
:1043700081E08093BA0231DC8091E10080FF18C0B7
:104380008091E20080FF14C08091E2008E7F8093D4
:10439000E2008091E20080618093E2008091D80089
:1043A00080628093D80019BC85E08093BA0227DC34
:1043B0008091E10084FF2AC08091E20084FF26C042
:1043C00080E189BD82E189BD89B5982F917080FF18
:1043D000FBCF8091D8008F7D8093D8008091E10041
:1043E0008F7E8093E1008091E2008F7E8093E200D7
:1043F0008091E20081608093E2008091B602882380
:1044000009F445C084E08093BA0200DC8091E100A9
:1044100083FF27C08091E20083FF23C08091E100E9
:10442000877F8093E10082E08093BA021092B60207
:104430008091E1008E7F8093E1008091E2008E7F89
:104440008093E2008091E20080618093E20042E08C
:1044500060E080E05DDE8091F00088608093F00095
:10446000CBDBFF91EF91BF91AF919F918F917F91A6
:104470006F915F914F913F912F910F900FBE0F90D1
:104480001F90189519BC1092BA02B3DB75CF8091BA
:10449000E30087FD93E09093BA02B7CF1F920F928B
:1044A0000FB60F9211242F933F934F935F936F9307
:1044B0007F938F939F93AF93BF93CF93DF93EF93AC
:1044C000FF93D091E900DF708091EC00C82FC1709C
:1044D00080FDC0E81092E9008091F000877F809312
:1044E000F00078941ED01092E9008091F00088606E
:1044F0008093F000CD2BCF70C093E900FF91EF9136
:10450000DF91CF91BF91AF919F918F917F916F91EB
:104510005F914F913F912F910F900FBE0F901F9081
:104520001895AAE2B0E0E6E9F2E28BC18BEB92E0EB
:104530002091F100FC012193CF01F2E0833C9F0721
:10454000B9F77EDB8091E80083FF16C18091BB0242
:104550009091BC029A3008F00FC1E92FF0E0EB51C6
:10456000FB4D5AC1803899F0823809F005C180911D
:10457000BF028F70873008F0FFC08093E900809100
:10458000EB0085FB882780F91092E90006C0809136
:10459000B7029091B802911182609091E800977FE4
:1045A0009093E8008093F1001092F1008091E80070
:1045B0008E77DFC0882309F4CDC0823009F0DCC0DB
:1045C0008091BD028111D0C08091BF028F702FEF0A
:1045D000280F263008F0D0C08093E9002091EB002E
:1045E00020FFC2C0933031F48091EB008062809351
:1045F000EB00BAC09091EB0090619093EB0021E04A
:1046000030E001C0220F8A95EAF72093EA00109269
:10461000EA008091EB008860EACF8111ADC0109173
:10462000BD021F778091E3008078812B8093E300A7
:104630008091E800877F8093E8009EDD8091E8000C
:1046400080FFFCCF8091E30080688093E30082E0EC
:10465000111183E08093BA028FC08058823008F035
:104660008BC08091BD029091BE028C3D23E09207E9
:1046700099F583E08A838AE289834FB7F894DE0153
:10468000139620E03EE051E2E32FF0E05093570014
:10469000E49120FF03C0E295EF703F5FEF708E2F33
:1046A00090E0EA30B8F0C7968D939D932F5F243148
:1046B00059F74FBF8091E800877F8093E8006AE256
:1046C00070E0CE01019667DC8091E8008B778093E3
:1046D000E80052C0C096E8CF6091BF027091C0025E
:1046E000AE014F5F5F4F96DBBC01892B09F444C0DC
:1046F0009091E800977F9093E80089819A81A9DCE6
:10470000E3CF8038C9F58091E800877F8093E80087
:104710008091B6028093F10049CF81112DC0909114
:10472000BD02923048F58091E800877F8093E800D1
:104730009093B60221DD8091B602882311F084E0C7
:1047400005C08091E30087FDFACF81E08093BA0233
:1047500066DA12C08091BD02813071F481E093303D
:1047600009F080E08093B8021092E9008091E8009F
:10477000877F8093E80000DD8091E80083FF0AC016
:104780008091E800877F8093E8008091EB00806251
:104790008093EB00AA96E3E070C00895CF938091D8
:1047A000BA02882399F0C091E900CF709091EC0093
:1047B000892F817090FD80E8C82B1092E9008091CC
:1047C000E80083FDAEDECF70C093E900CF9108957D
:1047D00023DD1092BA020895E8EDF0E08081806157
:1047E00080838AE18A95F1F700C08091D9008170B9
:1047F000089597FB072E16F4009406D077FD08D095
:1048000048D007FC05D03EF4909581959F4F0895C0
:10481000709561957F4F0895EE0FFF1F0590F491FD
:10482000E02D09942F923F924F925F926F927F9268
:104830008F929F92AF92BF92CF92DF92EF92FF92B0
:104840000F931F93CF93DF93CDB7DEB7CA1BDB0B5C
:104850000FB6F894DEBF0FBECDBF09942A88398801
:1048600048885F846E847D848C849B84AA84B98408
:10487000C884DF80EE80FD800C811B81AA81B98114
:10488000CE0FD11D0FB6F894DEBF0FBECDBFED0128
:104890000895AA1BBB1B51E107C0AA1FBB1FA61787
:1048A000B70710F0A61BB70B881F991F5A95A9F7D9
:1048B00080959095BC01CD010895FB01DC0104C0F9
:1048C0008D910190801921F441505040C8F7881B08
:1048D000990B0895FB01DC0102C001900D9241503B
:1048E0005040D8F70895F999FECF92BD81BDF89A4E
:1048F000992780B50895A8E1B0E042E050E020C0DB
:10490000262FF999FECF92BD81BDF89A019700B488
:10491000021639F01FBA20BD0FB6F894FA9AF99A28
:104920000FBE08950396272FECDFEADF252FE9DF7E
:10493000242FE7CF0196272FE4DFE2CFDC01CB0164
:10494000FC01F999FECF06C0F2BDE1BDF89A31969F
:1049500000B40D9241505040B8F70895F894FFCF3D
:10496000630563058D058D05F1051806C0050C0668
:104970001C06850691069106CA153C16D2159C1593
:10498000A015D615A415DA15E615B0153516B4150B
:10499000EA15B815EE151616BC15F2151D16C2153A
:1049A000F8150016A815DE15AC15E215C615FC1590
:1049B0000C16261633169615CE15431636193C19C5
:1049C00026193019421948194E19B222DA22BC238D
:0E49D000DA22BC230D232D23BC2381238D234B
:1049DE00220201000000010000000000000005019D
:1049EE0000000004060000000000002808503C07EC
:1049FE001400000100CF1AD91DAB1DD41DCF1DE22E
:104A0E0000E900EA00B500B600B700CD008301CC86
:104A1E00008A01920194012102230224022502261A
:104A2E000227022A02B300B4006F0070009F01CB70
:104A3E00019F02A002818283E200E900EA00B50034
:104A4E00B600B700CD008301CC008A01920194011B
:104A5E002102230224022502260227022A02B30083
:104A6E00B4006F0070009F01CB019F02A0028182F3
:0E4A7E00836697C63435F73133323640020076
:00000001FF
